{
  "address": "0x01bE3905f5de558d0Fe603B26467466c1395F9a1",
  "abi": [
    {
      "inputs": [],
      "stateMutability": "nonpayable",
      "type": "constructor"
    },
    {
      "inputs": [],
      "name": "AlreadyRegistered",
      "type": "error"
    },
    {
      "inputs": [],
      "name": "Unauthorized",
      "type": "error"
    },
    {
      "anonymous": false,
      "inputs": [
        {
          "indexed": true,
          "internalType": "address",
          "name": "studentAddress",
          "type": "address"
        },
        {
          "indexed": false,
          "internalType": "string",
          "name": "name",
          "type": "string"
        },
        {
          "indexed": false,
          "internalType": "uint256",
          "name": "age",
          "type": "uint256"
        }
      ],
      "name": "StudentAdded",
      "type": "event"
    },
    {
      "inputs": [
        {
          "internalType": "address",
          "name": "_student",
          "type": "address"
        }
      ],
      "name": "getStudent",
      "outputs": [
        {
          "internalType": "string",
          "name": "name",
          "type": "string"
        },
        {
          "internalType": "uint256",
          "name": "age",
          "type": "uint256"
        },
        {
          "internalType": "bool",
          "name": "isRegistered",
          "type": "bool"
        }
      ],
      "stateMutability": "view",
      "type": "function"
    },
    {
      "inputs": [
        {
          "internalType": "address",
          "name": "_student",
          "type": "address"
        }
      ],
      "name": "isStudentRegistered",
      "outputs": [
        {
          "internalType": "bool",
          "name": "",
          "type": "bool"
        }
      ],
      "stateMutability": "view",
      "type": "function"
    },
    {
      "inputs": [],
      "name": "owner",
      "outputs": [
        {
          "internalType": "address",
          "name": "",
          "type": "address"
        }
      ],
      "stateMutability": "view",
      "type": "function"
    },
    {
      "inputs": [
        {
          "internalType": "address",
          "name": "_student",
          "type": "address"
        },
        {
          "internalType": "string",
          "name": "_name",
          "type": "string"
        },
        {
          "internalType": "uint256",
          "name": "_age",
          "type": "uint256"
        }
      ],
      "name": "registerStudent",
      "outputs": [],
      "stateMutability": "nonpayable",
      "type": "function"
    }
  ],
  "transactionHash": "0x8a6dccee272ec0e5cd89e2482704f10b952e95f519d2065b4f9c7cd1abea5a9a",
  "args": [],
  "numDeployments": 1,
  "solcInputHash": "b08feeb59e67fbef4f96cd7d71626448",
  "bytecode": "0x60a08060405234602857336080526105f2908161002e823960805181818160b401526103ee0152f35b600080fdfe608080604052600436101561001357600080fd5b60003560e01c9081636b7b44d714610412575080638da5cb5b146103ce578063b8b2e42c1461038c5763d47f9d131461004b57600080fd5b346103875760603660031901126103875761006461054a565b60243567ffffffffffffffff8111610387573660238201121561038757806004013567ffffffffffffffff8111610387576024820191602482369201011161038757604435926001600160a01b037f000000000000000000000000000000000000000000000000000000000000000016330361035d576001600160a01b03169182600052600060205260ff60026040600020015416610333576040516060810181811067ffffffffffffffff82111761031d57604052600094601f19601f85011691604051610136602085018261059a565b858152858560208301378760208783010152815260208101908282526040810191600183528789528860205260408920915180519067ffffffffffffffff8211610309576101848454610560565b601f81116102c4575b506020908b601f84116001146102345792807fac4a9513a5c8018262c0b02f41b831ce95aeefa4b387b7c565885fb0d0012d869b9a98969360609a98969360029692610229575b50508160011b916000199060031b1c19161782555b516001820155019051151560ff8019835416911617905587848660405197889660408852816040890152838801378501015260208301528101030190a280f35b0151905038806101d4565b50848c52818c209190601f1984168d5b8181106102ac5750937fac4a9513a5c8018262c0b02f41b831ce95aeefa4b387b7c565885fb0d0012d869b9a98969360609a9896936001938360029810610293575b505050811b0182556101e9565b015160001960f88460031b161c19169055388080610286565b92936020600181928786015181550195019301610244565b848c5260208c20601f840160051c810191602085106102ff575b601f0160051c01905b8181106102f4575061018d565b8c81556001016102e7565b90915081906102de565b60248b634e487b7160e01b81526041600452fd5b634e487b7160e01b600052604160045260246000fd5b7f3a81d6fc0000000000000000000000000000000000000000000000000000000060005260046000fd5b7f82b429000000000000000000000000000000000000000000000000000000000060005260046000fd5b600080fd5b34610387576020366003190112610387576001600160a01b036103ad61054a565b166000526000602052602060ff600260406000200154166040519015158152f35b346103875760003660031901126103875760206040516001600160a01b037f0000000000000000000000000000000000000000000000000000000000000000168152f35b34610387576020366003190112610387576001600160a01b0361043361054a565b16600052600060205260406000209060018201549160ff6002820154169082600082549261046084610560565b808452936001811690811561052857506001146104e1575b506104859250038361059a565b6040519283916060835283519182606085015260005b8381106104c95750608094506000858486010152602084015215156040830152601f80199101168101030190f35b6020868201810151608089840101528795500161049b565b90506000929192526020600020906000915b81831061050c5750509060206104859282010186610478565b60209193508060019154838589010152019101909184926104f3565b90506020925061048594915060ff191682840152151560051b82010186610478565b600435906001600160a01b038216820361038757565b90600182811c92168015610590575b602083101461057a57565b634e487b7160e01b600052602260045260246000fd5b91607f169161056f565b90601f8019910116810190811067ffffffffffffffff82111761031d5760405256fea26469706673582212208d84331465fc7ef9fb963086ee5316887cf9720783ef985da0ab27cc44d4e6e064736f6c634300081c0033",
  "devdoc": {
    "kind": "dev",
    "methods": {},
    "version": 1
  },
  "userdoc": {
    "kind": "user",
    "methods": {},
    "version": 1
  },
  "storageLayout": {
    "storage": [
      {
        "astId": 15,
        "contract": "contracts/StudentRegistryV2.sol:StudentRegistryV2",
        "label": "students",
        "offset": 0,
        "slot": "0",
        "type": "t_mapping(t_address,t_struct(Student)10_storage)"
      }
    ],
    "types": {
      "t_address": {
        "encoding": "inplace",
        "label": "address",
        "numberOfBytes": "20"
      },
      "t_bool": {
        "encoding": "inplace",
        "label": "bool",
        "numberOfBytes": "1"
      },
      "t_mapping(t_address,t_struct(Student)10_storage)": {
        "encoding": "mapping",
        "key": "t_address",
        "label": "mapping(address => struct StudentRegistryV2.Student)",
        "numberOfBytes": "32",
        "value": "t_struct(Student)10_storage"
      },
      "t_string_storage": {
        "encoding": "bytes",
        "label": "string",
        "numberOfBytes": "32"
      },
      "t_struct(Student)10_storage": {
        "encoding": "inplace",
        "label": "struct StudentRegistryV2.Student",
        "members": [
          {
            "astId": 5,
            "contract": "contracts/StudentRegistryV2.sol:StudentRegistryV2",
            "label": "name",
            "offset": 0,
            "slot": "0",
            "type": "t_string_storage"
          },
          {
            "astId": 7,
            "contract": "contracts/StudentRegistryV2.sol:StudentRegistryV2",
            "label": "age",
            "offset": 0,
            "slot": "1",
            "type": "t_uint256"
          },
          {
            "astId": 9,
            "contract": "contracts/StudentRegistryV2.sol:StudentRegistryV2",
            "label": "isRegistered",
            "offset": 0,
            "slot": "2",
            "type": "t_bool"
          }
        ],
        "numberOfBytes": "96"
      },
      "t_uint256": {
        "encoding": "inplace",
        "label": "uint256",
        "numberOfBytes": "32"
      }
    }
  }
}